:020000020000FC
:1000000070696E670D0A0000706F6E670D0A000060
:10001000F8940FEC09B900E000BD08E00AB906E069
:1000200000BD00E00DBD0CBD08EE0ABD03E00BBD38
:100030000BE00EBD00E109BF00E004BD00ED03BD13
:100040000CE005BD00E809BF7894FFCF0F93E0E016
:10005000F0E00591003011F00DD0FBCF0F91189515
:100060000F93E4E0F0E00591003011F003D0FBCFF6
:100070000F9118950CB90BB105FFFDCF0895E6CF90
:02008000EFCFC0
:00000001FF
